{
  "_format": "hh-sol-artifact-1",
  "contractName": "GaiaDividendDistributor",
  "sourceName": "contracts/GaiaDividendDistributor.sol",
  "abi": [
    {
      "inputs": [
        {
          "internalType": "contract IWETH",
          "name": "_WETH",
          "type": "address"
        }
      ],
      "stateMutability": "nonpayable",
      "type": "constructor"
    },
    {
      "anonymous": false,
      "inputs": [
        {
          "indexed": false,
          "internalType": "address",
          "name": "user",
          "type": "address"
        },
        {
          "indexed": false,
          "internalType": "uint256",
          "name": "rewardId",
          "type": "uint256"
        },
        {
          "indexed": false,
          "internalType": "address",
          "name": "token",
          "type": "address"
        },
        {
          "indexed": false,
          "internalType": "uint256",
          "name": "amount",
          "type": "uint256"
        }
      ],
      "name": "Claim",
      "type": "event"
    },
    {
      "anonymous": false,
      "inputs": [
        {
          "indexed": false,
          "internalType": "address",
          "name": "token",
          "type": "address"
        },
        {
          "indexed": false,
          "internalType": "uint256",
          "name": "amount",
          "type": "uint256"
        },
        {
          "indexed": false,
          "internalType": "bytes32",
          "name": "merkleRoot",
          "type": "bytes32"
        },
        {
          "indexed": false,
          "internalType": "uint256",
          "name": "rewardId",
          "type": "uint256"
        }
      ],
      "name": "Distribute",
      "type": "event"
    },
    {
      "anonymous": false,
      "inputs": [
        {
          "indexed": false,
          "internalType": "address",
          "name": "token",
          "type": "address"
        },
        {
          "indexed": false,
          "internalType": "uint256",
          "name": "amount",
          "type": "uint256"
        }
      ],
      "name": "EmergencyWithdraw",
      "type": "event"
    },
    {
      "anonymous": false,
      "inputs": [
        {
          "indexed": true,
          "internalType": "address",
          "name": "previousOwner",
          "type": "address"
        },
        {
          "indexed": true,
          "internalType": "address",
          "name": "newOwner",
          "type": "address"
        }
      ],
      "name": "OwnershipTransferred",
      "type": "event"
    },
    {
      "anonymous": false,
      "inputs": [
        {
          "indexed": false,
          "internalType": "address",
          "name": "depositor",
          "type": "address"
        },
        {
          "indexed": false,
          "internalType": "bool",
          "name": "status",
          "type": "bool"
        }
      ],
      "name": "UpdateDepositor",
      "type": "event"
    },
    {
      "stateMutability": "payable",
      "type": "fallback"
    },
    {
      "inputs": [],
      "name": "WETH",
      "outputs": [
        {
          "internalType": "contract IWETH",
          "name": "",
          "type": "address"
        }
      ],
      "stateMutability": "view",
      "type": "function"
    },
    {
      "inputs": [
        {
          "internalType": "uint256[]",
          "name": "rewardIds",
          "type": "uint256[]"
        },
        {
          "internalType": "uint256[]",
          "name": "amounts",
          "type": "uint256[]"
        },
        {
          "internalType": "bytes32[][]",
          "name": "proof",
          "type": "bytes32[][]"
        }
      ],
      "name": "claimRewards",
      "outputs": [],
      "stateMutability": "nonpayable",
      "type": "function"
    },
    {
      "inputs": [
        {
          "internalType": "address[]",
          "name": "users",
          "type": "address[]"
        },
        {
          "internalType": "uint256[]",
          "name": "rewardIds",
          "type": "uint256[]"
        },
        {
          "internalType": "uint256[]",
          "name": "amounts",
          "type": "uint256[]"
        },
        {
          "internalType": "bytes32[][]",
          "name": "proof",
          "type": "bytes32[][]"
        }
      ],
      "name": "claimRewardsByOwner",
      "outputs": [],
      "stateMutability": "nonpayable",
      "type": "function"
    },
    {
      "inputs": [
        {
          "internalType": "address",
          "name": "token",
          "type": "address"
        },
        {
          "internalType": "uint256",
          "name": "amount",
          "type": "uint256"
        },
        {
          "internalType": "bytes32",
          "name": "merkleRoot",
          "type": "bytes32"
        }
      ],
      "name": "depositReward",
      "outputs": [
        {
          "internalType": "uint256",
          "name": "rewardId",
          "type": "uint256"
        }
      ],
      "stateMutability": "payable",
      "type": "function"
    },
    {
      "inputs": [
        {
          "internalType": "address",
          "name": "token",
          "type": "address"
        }
      ],
      "name": "emergencyWithdraw",
      "outputs": [],
      "stateMutability": "nonpayable",
      "type": "function"
    },
    {
      "inputs": [
        {
          "internalType": "address",
          "name": "",
          "type": "address"
        }
      ],
      "name": "isDepositor",
      "outputs": [
        {
          "internalType": "bool",
          "name": "",
          "type": "bool"
        }
      ],
      "stateMutability": "view",
      "type": "function"
    },
    {
      "inputs": [
        {
          "internalType": "address",
          "name": "user",
          "type": "address"
        },
        {
          "internalType": "uint256",
          "name": "rewardId",
          "type": "uint256"
        }
      ],
      "name": "isRewardCollected",
      "outputs": [
        {
          "internalType": "bool",
          "name": "",
          "type": "bool"
        }
      ],
      "stateMutability": "view",
      "type": "function"
    },
    {
      "inputs": [
        {
          "internalType": "bytes32",
          "name": "",
          "type": "bytes32"
        }
      ],
      "name": "merkleRootUsed",
      "outputs": [
        {
          "internalType": "bool",
          "name": "",
          "type": "bool"
        }
      ],
      "stateMutability": "view",
      "type": "function"
    },
    {
      "inputs": [],
      "name": "owner",
      "outputs": [
        {
          "internalType": "address",
          "name": "",
          "type": "address"
        }
      ],
      "stateMutability": "view",
      "type": "function"
    },
    {
      "inputs": [],
      "name": "renounceOwnership",
      "outputs": [],
      "stateMutability": "nonpayable",
      "type": "function"
    },
    {
      "inputs": [
        {
          "internalType": "uint256",
          "name": "id",
          "type": "uint256"
        }
      ],
      "name": "rewards",
      "outputs": [
        {
          "components": [
            {
              "internalType": "address",
              "name": "token",
              "type": "address"
            },
            {
              "internalType": "uint256",
              "name": "amount",
              "type": "uint256"
            },
            {
              "internalType": "bytes32",
              "name": "merkleRoot",
              "type": "bytes32"
            }
          ],
          "internalType": "struct IGaiaDividendDistributor.Reward",
          "name": "",
          "type": "tuple"
        }
      ],
      "stateMutability": "view",
      "type": "function"
    },
    {
      "inputs": [],
      "name": "rewardsCount",
      "outputs": [
        {
          "internalType": "uint256",
          "name": "",
          "type": "uint256"
        }
      ],
      "stateMutability": "view",
      "type": "function"
    },
    {
      "inputs": [
        {
          "internalType": "address",
          "name": "newOwner",
          "type": "address"
        }
      ],
      "name": "transferOwnership",
      "outputs": [],
      "stateMutability": "nonpayable",
      "type": "function"
    },
    {
      "inputs": [
        {
          "internalType": "address",
          "name": "depositor",
          "type": "address"
        },
        {
          "internalType": "bool",
          "name": "status",
          "type": "bool"
        }
      ],
      "name": "updateDepositor",
      "outputs": [],
      "stateMutability": "nonpayable",
      "type": "function"
    },
    {
      "stateMutability": "payable",
      "type": "receive"
    }
  ],
  "bytecode": "0x60a060405234801561001057600080fd5b5060405161173738038061173783398101604081905261002f916100ba565b6100383361006a565b60018080556001600160a01b03909116608052336000908152600460205260409020805460ff191690911790556100ea565b600080546001600160a01b038381166001600160a01b0319831681178455604051919092169283917f8be0079c531659141344cd1fd0a4f28419497f9722a3daafe3b4186f6b6457e09190a35050565b6000602082840312156100cc57600080fd5b81516001600160a01b03811681146100e357600080fd5b9392505050565b6080516116246101136000396000818161021b01528181610dc60152610e4401526116246000f3fe6080604052600436106100d55760003560e01c8063ad2fec9e11610079578063cbe81c8c11610056578063cbe81c8c1461026d578063dbd826871461028d578063f2fde38b146102a0578063f301af42146102c057005b8063ad2fec9e146101e9578063ad5c464814610209578063ba42590d1461023d57005b80637041828e116100b25780637041828e14610163578063715018a6146101835780638699a65f146101985780638da5cb5b146101b757005b8063227a72e9146100de5780632f70d1ba146100fe5780636ff1c9bc1461014357005b366100dc57005b005b3480156100ea57600080fd5b506100dc6100f9366004611262565b61030b565b34801561010a57600080fd5b5061012e610119366004611342565b60046020526000908152604090205460ff1681565b60405190151581526020015b60405180910390f35b34801561014f57600080fd5b506100dc61015e366004611342565b61047a565b34801561016f57600080fd5b506100dc61017e36600461136b565b610567565b34801561018f57600080fd5b506100dc610637565b3480156101a457600080fd5b506002545b60405190815260200161013a565b3480156101c357600080fd5b506000546001600160a01b03165b6040516001600160a01b03909116815260200161013a565b3480156101f557600080fd5b5061012e6102043660046113a2565b61064b565b34801561021557600080fd5b506101d17f000000000000000000000000000000000000000000000000000000000000000081565b34801561024957600080fd5b5061012e6102583660046113cc565b60056020526000908152604090205460ff1681565b34801561027957600080fd5b506100dc6102883660046113e5565b6106a4565b6101a961029b36600461147f565b61078a565b3480156102ac57600080fd5b506100dc6102bb366004611342565b610a5b565b3480156102cc57600080fd5b506102e06102db3660046113cc565b610ad4565b6040805182516001600160a01b0316815260208084015190820152918101519082015260600161013a565b6002600154036103625760405162461bcd60e51b815260206004820152601f60248201527f5265656e7472616e637947756172643a207265656e7472616e742063616c6c0060448201526064015b60405180910390fd5b600260015561036f610b4d565b86858114801561037e57508381145b801561038957508181145b6103c85760405162461bcd60e51b815260206004820152601060248201526f13115391d51217d393d517d15455505360821b6044820152606401610359565b60005b8181101561046a576104588a8a838181106103e8576103e86114b2565b90506020020160208101906103fd9190611342565b89898481811061040f5761040f6114b2565b90506020020135888885818110610428576104286114b2565b90506020020135878786818110610441576104416114b2565b905060200281019061045391906114c8565b610ba7565b8061046281611512565b9150506103cb565b5050600180555050505050505050565b610482610b4d565b60006001600160a01b0382166104a357504761049e3382610d69565b610521565b6040516370a0823160e01b81523060048201526001600160a01b038316906370a0823190602401602060405180830381865afa1580156104e7573d6000803e3d6000fd5b505050506040513d601f19601f8201168201806040525081019061050b9190611539565b90506105216001600160a01b0383163383610e74565b604080516001600160a01b0384168152602081018390527f5fafa99d0643513820be26656b45130b01e1c03062e1266bf36f88cbd3bd9695910160405180910390a15050565b61056f610b4d565b6001600160a01b03821660009081526004602052604090205460ff16811515811515036105d35760405162461bcd60e51b815260206004820152601260248201527114d510551554d7d393d517d0d2105391d15160721b6044820152606401610359565b6001600160a01b038316600081815260046020908152604091829020805460ff19168615159081179091558251938452908301527f0ca259adb5a739fbfe7f13d244af2763da26441bcec3f9af5954daa8e073f65a910160405180910390a1505050565b61063f610b4d565b6106496000610ec6565b565b600061065660025490565b82106106935760405162461bcd60e51b815260206004820152600c60248201526b4f55545f4f465f52414e474560a01b6044820152606401610359565b61069d8383610f16565b9392505050565b6002600154036106f65760405162461bcd60e51b815260206004820152601f60248201527f5265656e7472616e637947756172643a207265656e7472616e742063616c6c006044820152606401610359565b600260015584838114801561070a57508181145b6107495760405162461bcd60e51b815260206004820152601060248201526f13115391d51217d393d517d15455505360821b6044820152606401610359565b60005b8181101561077c5761076a3389898481811061040f5761040f6114b2565b8061077481611512565b91505061074c565b505060018055505050505050565b3360009081526004602052604081205460ff166107d85760405162461bcd60e51b815260206004820152600c60248201526b15539055551213d49256915160a21b6044820152606401610359565b826000036108135760405162461bcd60e51b81526020600482015260086024820152670414d4f554e545f360c41b6044820152606401610359565b60008281526005602052604090205460ff16156108645760405162461bcd60e51b815260206004820152600f60248201526e1554d15117d3515492d3115493d3d5608a1b6044820152606401610359565b6000828152600560205260409020805460ff191660011790556001600160a01b0384166108d1578234146108cc5760405162461bcd60e51b815260206004820152600f60248201526e57524f4e475f4d53472e56414c554560881b6044820152606401610359565b61094a565b6040516323b872dd60e01b8152336004820152306024820152604481018490526001600160a01b038516906323b872dd906064016020604051808303816000875af1158015610924573d6000803e3d6000fd5b505050506040513d601f19601f820116820180604052508101906109489190611552565b505b506002805460408051606080820183526001600160a01b0388811680845260208085018a81528587018a8152600189018a5560009990995294517f405787fa12a823e0f2b7631cc41b3ba8828b3321ca811111fa75cd3aa3bb5ace6003890290810180546001600160a01b031916929095169190911790935593517f405787fa12a823e0f2b7631cc41b3ba8828b3321ca811111fa75cd3aa3bb5acf83015595517f405787fa12a823e0f2b7631cc41b3ba8828b3321ca811111fa75cd3aa3bb5ad09091015582519485529084018690529083018490528201819052907fc33d845274694230009cbd29c15a80ecd80117839d3d60352f87cd1938862ca59060800160405180910390a19392505050565b610a63610b4d565b6001600160a01b038116610ac85760405162461bcd60e51b815260206004820152602660248201527f4f776e61626c653a206e6577206f776e657220697320746865207a65726f206160448201526564647265737360d01b6064820152608401610359565b610ad181610ec6565b50565b604080516060810182526000808252602082018190529181019190915260028281548110610b0457610b046114b2565b600091825260209182902060408051606081018252600390930290910180546001600160a01b031683526001810154938301939093526002909201549181019190915292915050565b6000546001600160a01b031633146106495760405162461bcd60e51b815260206004820181905260248201527f4f776e61626c653a2063616c6c6572206973206e6f7420746865206f776e65726044820152606401610359565b6040516bffffffffffffffffffffffff19606087901b16602082015260348101849052600090605401604051602081830303815290604052805190602001209050600060028681548110610bfd57610bfd6114b2565b90600052602060002090600302019050610c178787610f16565b15610c565760405162461bcd60e51b815260206004820152600f60248201526e1053149150511657d0d31052535151608a1b6044820152606401610359565b610c668484836002015485610f4d565b610ca85760405162461bcd60e51b815260206004820152601360248201527215915492519250d0551253d397d19052531151606a1b6044820152606401610359565b6001600160a01b038716600090815260036020908152604080832060088a901c845290915290208054600160ff89161b17905580546001600160a01b031680610cfa57610cf58887610d69565b610d0e565b610d0e6001600160a01b0382168988610e74565b604080516001600160a01b038a81168252602082018a90528316818301526060810188905290517fad03f837a9207e368d73ec028e1f54428184da8cfea258cc116da2225f3ac5eb9181900360800190a15050505050505050565b6000826001600160a01b03168260405160006040518083038185875af1925050503d8060008114610db6576040519150601f19603f3d011682016040523d82523d6000602084013e610dbb565b606091505b5050905080610e6f577f00000000000000000000000000000000000000000000000000000000000000006001600160a01b031663d0e30db0836040518263ffffffff1660e01b81526004016000604051808303818588803b158015610e1f57600080fd5b505af1158015610e33573d6000803e3d6000fd5b50610e6f9350506001600160a01b037f000000000000000000000000000000000000000000000000000000000000000016915085905084610e74565b505050565b604080516001600160a01b038416602482015260448082018490528251808303909101815260649091019091526020810180516001600160e01b031663a9059cbb60e01b179052610e6f908490610fc3565b600080546001600160a01b038381166001600160a01b0319831681178455604051919092169283917f8be0079c531659141344cd1fd0a4f28419497f9722a3daafe3b4186f6b6457e09190a35050565b6001600160a01b0382166000908152600360209081526040808320600885901c8452909152812054600160ff84161b16151561069d565b600081815b85811015610fb7576000878783818110610f6e57610f6e6114b2565b905060200201359050808311610f935760008381526020829052604090209250610fa4565b600081815260208490526040902092505b5080610faf81611512565b915050610f52565b50909214949350505050565b6000611018826040518060400160405280602081526020017f5361666545524332303a206c6f772d6c6576656c2063616c6c206661696c6564815250856001600160a01b03166110959092919063ffffffff16565b805190915015610e6f57808060200190518101906110369190611552565b610e6f5760405162461bcd60e51b815260206004820152602a60248201527f5361666545524332303a204552433230206f7065726174696f6e20646964206e6044820152691bdd081cdd58d8d9595960b21b6064820152608401610359565b60606110a484846000856110ac565b949350505050565b60608247101561110d5760405162461bcd60e51b815260206004820152602660248201527f416464726573733a20696e73756666696369656e742062616c616e636520666f6044820152651c8818d85b1b60d21b6064820152608401610359565b6001600160a01b0385163b6111645760405162461bcd60e51b815260206004820152601d60248201527f416464726573733a2063616c6c20746f206e6f6e2d636f6e74726163740000006044820152606401610359565b600080866001600160a01b03168587604051611180919061159f565b60006040518083038185875af1925050503d80600081146111bd576040519150601f19603f3d011682016040523d82523d6000602084013e6111c2565b606091505b50915091506111d28282866111dd565b979650505050505050565b606083156111ec57508161069d565b8251156111fc5782518084602001fd5b8160405162461bcd60e51b815260040161035991906115bb565b60008083601f84011261122857600080fd5b50813567ffffffffffffffff81111561124057600080fd5b6020830191508360208260051b850101111561125b57600080fd5b9250929050565b6000806000806000806000806080898b03121561127e57600080fd5b883567ffffffffffffffff8082111561129657600080fd5b6112a28c838d01611216565b909a50985060208b01359150808211156112bb57600080fd5b6112c78c838d01611216565b909850965060408b01359150808211156112e057600080fd5b6112ec8c838d01611216565b909650945060608b013591508082111561130557600080fd5b506113128b828c01611216565b999c989b5096995094979396929594505050565b80356001600160a01b038116811461133d57600080fd5b919050565b60006020828403121561135457600080fd5b61069d82611326565b8015158114610ad157600080fd5b6000806040838503121561137e57600080fd5b61138783611326565b915060208301356113978161135d565b809150509250929050565b600080604083850312156113b557600080fd5b6113be83611326565b946020939093013593505050565b6000602082840312156113de57600080fd5b5035919050565b600080600080600080606087890312156113fe57600080fd5b863567ffffffffffffffff8082111561141657600080fd5b6114228a838b01611216565b9098509650602089013591508082111561143b57600080fd5b6114478a838b01611216565b9096509450604089013591508082111561146057600080fd5b5061146d89828a01611216565b979a9699509497509295939492505050565b60008060006060848603121561149457600080fd5b61149d84611326565b95602085013595506040909401359392505050565b634e487b7160e01b600052603260045260246000fd5b6000808335601e198436030181126114df57600080fd5b83018035915067ffffffffffffffff8211156114fa57600080fd5b6020019150600581901b360382131561125b57600080fd5b60006001820161153257634e487b7160e01b600052601160045260246000fd5b5060010190565b60006020828403121561154b57600080fd5b5051919050565b60006020828403121561156457600080fd5b815161069d8161135d565b60005b8381101561158a578181015183820152602001611572565b83811115611599576000848401525b50505050565b600082516115b181846020870161156f565b9190910192915050565b60208152600082518060208401526115da81604085016020870161156f565b601f01601f1916919091016040019291505056fea26469706673582212204ac65bcb50e8ba88f06f3076a36235c1e6f31dfc1f9ad4a847fdf0780061421c64736f6c634300080f0033",
  "linkReferences": {},
  "deployedLinkReferences": {}
}