{
  "_format": "hh-sol-artifact-1",
  "contractName": "GaiaStableDAOOperatorV3",
  "sourceName": "contracts/GaiaStableDAOOperatorV3.sol",
  "abi": [
    {
      "inputs": [
        {
          "internalType": "uint16[]",
          "name": "burnedIds",
          "type": "uint16[]"
        }
      ],
      "stateMutability": "nonpayable",
      "type": "constructor"
    },
    {
      "anonymous": false,
      "inputs": [
        {
          "indexed": true,
          "internalType": "address",
          "name": "user",
          "type": "address"
        },
        {
          "indexed": true,
          "internalType": "uint256",
          "name": "id",
          "type": "uint256"
        }
      ],
      "name": "BuyBack",
      "type": "event"
    },
    {
      "anonymous": false,
      "inputs": [
        {
          "indexed": true,
          "internalType": "address",
          "name": "previousOwner",
          "type": "address"
        },
        {
          "indexed": true,
          "internalType": "address",
          "name": "newOwner",
          "type": "address"
        }
      ],
      "name": "OwnershipTransferred",
      "type": "event"
    },
    {
      "anonymous": false,
      "inputs": [
        {
          "indexed": false,
          "internalType": "bool",
          "name": "status",
          "type": "bool"
        }
      ],
      "name": "UpdateIsBuyBackAlive",
      "type": "event"
    },
    {
      "stateMutability": "payable",
      "type": "fallback"
    },
    {
      "inputs": [],
      "name": "BUYBACKPRICE",
      "outputs": [
        {
          "internalType": "uint256",
          "name": "",
          "type": "uint256"
        }
      ],
      "stateMutability": "view",
      "type": "function"
    },
    {
      "inputs": [],
      "name": "PRICEWITHGKRONOS",
      "outputs": [
        {
          "internalType": "uint256",
          "name": "",
          "type": "uint256"
        }
      ],
      "stateMutability": "view",
      "type": "function"
    },
    {
      "inputs": [],
      "name": "PRICEWITHGSUPERNOVA",
      "outputs": [
        {
          "internalType": "uint256",
          "name": "",
          "type": "uint256"
        }
      ],
      "stateMutability": "view",
      "type": "function"
    },
    {
      "inputs": [],
      "name": "PUBLICPRICE",
      "outputs": [
        {
          "internalType": "uint256",
          "name": "",
          "type": "uint256"
        }
      ],
      "stateMutability": "view",
      "type": "function"
    },
    {
      "inputs": [
        {
          "internalType": "uint16[]",
          "name": "tokenIds",
          "type": "uint16[]"
        }
      ],
      "name": "addBurnedIds",
      "outputs": [],
      "stateMutability": "nonpayable",
      "type": "function"
    },
    {
      "inputs": [],
      "name": "burnedTokensAmount",
      "outputs": [
        {
          "internalType": "uint256",
          "name": "",
          "type": "uint256"
        }
      ],
      "stateMutability": "view",
      "type": "function"
    },
    {
      "inputs": [
        {
          "internalType": "uint256[]",
          "name": "ids",
          "type": "uint256[]"
        }
      ],
      "name": "buyBack",
      "outputs": [],
      "stateMutability": "nonpayable",
      "type": "function"
    },
    {
      "inputs": [
        {
          "internalType": "address",
          "name": "token",
          "type": "address"
        }
      ],
      "name": "claimTokens",
      "outputs": [],
      "stateMutability": "nonpayable",
      "type": "function"
    },
    {
      "inputs": [],
      "name": "clearBurnedIds",
      "outputs": [],
      "stateMutability": "nonpayable",
      "type": "function"
    },
    {
      "inputs": [],
      "name": "gaiaKronos",
      "outputs": [
        {
          "internalType": "address",
          "name": "",
          "type": "address"
        }
      ],
      "stateMutability": "view",
      "type": "function"
    },
    {
      "inputs": [],
      "name": "gaiaSupernova",
      "outputs": [
        {
          "internalType": "address",
          "name": "",
          "type": "address"
        }
      ],
      "stateMutability": "view",
      "type": "function"
    },
    {
      "inputs": [],
      "name": "getBurnedIds",
      "outputs": [
        {
          "internalType": "uint16[]",
          "name": "ids",
          "type": "uint16[]"
        }
      ],
      "stateMutability": "view",
      "type": "function"
    },
    {
      "inputs": [],
      "name": "isBuyBackAlive",
      "outputs": [
        {
          "internalType": "bool",
          "name": "",
          "type": "bool"
        }
      ],
      "stateMutability": "view",
      "type": "function"
    },
    {
      "inputs": [
        {
          "internalType": "uint256",
          "name": "amount",
          "type": "uint256"
        },
        {
          "internalType": "address",
          "name": "nft",
          "type": "address"
        }
      ],
      "name": "mintStableDAO",
      "outputs": [],
      "stateMutability": "nonpayable",
      "type": "function"
    },
    {
      "inputs": [],
      "name": "oUSDC",
      "outputs": [
        {
          "internalType": "contract IERC20",
          "name": "",
          "type": "address"
        }
      ],
      "stateMutability": "view",
      "type": "function"
    },
    {
      "inputs": [],
      "name": "owner",
      "outputs": [
        {
          "internalType": "address",
          "name": "",
          "type": "address"
        }
      ],
      "stateMutability": "view",
      "type": "function"
    },
    {
      "inputs": [],
      "name": "renounceOwnership",
      "outputs": [],
      "stateMutability": "nonpayable",
      "type": "function"
    },
    {
      "inputs": [],
      "name": "stableDAO",
      "outputs": [
        {
          "internalType": "contract IGaiaStableDAO",
          "name": "",
          "type": "address"
        }
      ],
      "stateMutability": "view",
      "type": "function"
    },
    {
      "inputs": [
        {
          "internalType": "address",
          "name": "newOwner",
          "type": "address"
        }
      ],
      "name": "transferOwnership",
      "outputs": [],
      "stateMutability": "nonpayable",
      "type": "function"
    },
    {
      "inputs": [
        {
          "internalType": "bool",
          "name": "status",
          "type": "bool"
        }
      ],
      "name": "updateIsBuyBackAlive",
      "outputs": [],
      "stateMutability": "nonpayable",
      "type": "function"
    },
    {
      "stateMutability": "payable",
      "type": "receive"
    }
  ],
  "bytecode": "0x60806040526002805460ff191660011790553480156200001e57600080fd5b5060405162001ba138038062001ba18339810160408190526200004191620001b2565b6200004c336200006d565b60018055805162000065906003906020840190620000bd565b505062000284565b600080546001600160a01b038381166001600160a01b0319831681178455604051919092169283917f8be0079c531659141344cd1fd0a4f28419497f9722a3daafe3b4186f6b6457e09190a35050565b82805482825590600052602060002090600f016010900481019282156200015b5791602002820160005b838211156200012957835183826101000a81548161ffff021916908361ffff1602179055509260200192600201602081600101049283019260010302620000e7565b8015620001595782816101000a81549061ffff021916905560020160208160010104928301926001030262000129565b505b50620001699291506200016d565b5090565b5b808211156200016957600081556001016200016e565b634e487b7160e01b600052604160045260246000fd5b805161ffff81168114620001ad57600080fd5b919050565b60006020808385031215620001c657600080fd5b82516001600160401b0380821115620001de57600080fd5b818501915085601f830112620001f357600080fd5b81518181111562000208576200020862000184565b8060051b604051601f19603f8301168101818110858211171562000230576200023062000184565b6040529182528482019250838101850191888311156200024f57600080fd5b938501935b82851015620002785762000268856200019a565b8452938501939285019262000254565b98975050505050505050565b61190d80620002946000396000f3fe6080604052600436106101175760003560e01c8063b104c5c41161009a578063df8de3e711610061578063df8de3e7146102fd578063e48602061461031d578063ebd8781914610332578063f2fde38b1461035a578063fa00992a1461037a57005b8063b104c5c414610273578063cd08ec2314610293578063d4f8e696146102ab578063d8116d3914610293578063def27e5a146102d557005b80636903f17d116100de5780636903f17d146101e8578063715018a61461020857806374bf35fd1461021d5780638da5cb5b14610235578063a8087d2f1461025357005b80630a3fbd9a146101205780631622b2371461014b578063387c58841461016b578063424ddd3114610180578063464039ba146101c057005b3661011e57005b005b34801561012c57600080fd5b50610138634a817c8081565b6040519081526020015b60405180910390f35b34801561015757600080fd5b5061011e610166366004611573565b61039c565b34801561017757600080fd5b50600354610138565b34801561018c57600080fd5b506101a873bb915237d8b46dcdfe813c914bf98708e0dad84a81565b6040516001600160a01b039091168152602001610142565b3480156101cc57600080fd5b506101a87389a18abab20aab069feb7cab20517630ee7c162681565b3480156101f457600080fd5b5061011e6102033660046115dc565b61045e565b34801561021457600080fd5b5061011e61050d565b34801561022957600080fd5b50610138634d7c6d0081565b34801561024157600080fd5b506000546001600160a01b03166101a8565b34801561025f57600080fd5b5061011e61026e3660046115dc565b610543565b34801561027f57600080fd5b5061011e61028e366004611633565b610816565b34801561029f57600080fd5b506101386347868c0081565b3480156102b757600080fd5b506002546102c59060ff1681565b6040519015158152602001610142565b3480156102e157600080fd5b506101a873754288077d0ff82af7a5317c7cb8c444d421d10381565b34801561030957600080fd5b5061011e610318366004611663565b610a0a565b34801561032957600080fd5b5061011e610ace565b34801561033e57600080fd5b506101a873ecce87e11d057713665f020c5e206e18fccbc8b781565b34801561036657600080fd5b5061011e610375366004611663565b610b04565b34801561038657600080fd5b5061038f610b9f565b6040516101429190611680565b6000546001600160a01b031633146103cf5760405162461bcd60e51b81526004016103c6906116c8565b60405180910390fd5b60025481151560ff9091161515036104175760405162461bcd60e51b815260206004820152600b60248201526a1393d517d0d2105391d15160aa1b60448201526064016103c6565b6002805460ff19168215159081179091556040519081527f27d73893b4c9f3a3ffedc63442299f0dbd928293a3e85a286d2b31c2b4da7a4a9060200160405180910390a150565b6000546001600160a01b031633146104885760405162461bcd60e51b81526004016103c6906116c8565b60005b818110156105085760038383838181106104a7576104a76116fd565b90506020020160208101906104bc9190611713565b81546001810183556000928352602090922060108304018054600f9093166002026101000a61ffff818102199094169290931692909202179055806105008161174d565b91505061048b565b505050565b6000546001600160a01b031633146105375760405162461bcd60e51b81526004016103c6906116c8565b6105416000610c1f565b565b60025460ff166105885760405162461bcd60e51b815260206004820152601060248201526f109556509050d2d7d11254d05093115160821b60448201526064016103c6565b806105c35760405162461bcd60e51b815260206004820152600b60248201526a494e56414c49445f49445360a81b60448201526064016103c6565b60005b818110156107e3573373ecce87e11d057713665f020c5e206e18fccbc8b7636352211e8585858181106105fb576105fb6116fd565b905060200201356040518263ffffffff1660e01b815260040161062091815260200190565b602060405180830381865afa15801561063d573d6000803e3d6000fd5b505050506040513d601f19601f820116820180604052508101906106619190611766565b6001600160a01b0316146106a65760405162461bcd60e51b815260206004820152600c60248201526b15539055551213d49256915160a21b60448201526064016103c6565b73ecce87e11d057713665f020c5e206e18fccbc8b76342966c688484848181106106d2576106d26116fd565b905060200201356040518263ffffffff1660e01b81526004016106f791815260200190565b600060405180830381600087803b15801561071157600080fd5b505af1158015610725573d6000803e3d6000fd5b50505050600383838381811061073d5761073d6116fd565b835460018101855560009485526020948590206010820401805461ffff96909302949094013585166002600f909216919091026101000a9081029402191692909217905550828282818110610794576107946116fd565b90506020020135336001600160a01b03167f515a362443b428d4aab92057f742255c765d68033ba3f00847b57e323d0468d460405160405180910390a3806107db8161174d565b9150506105c6565b50610812336107f66347868c0084611783565b73754288077d0ff82af7a5317c7cb8c444d421d1039190610c6f565b5050565b816000036108575760405162461bcd60e51b815260206004820152600e60248201526d1253959053125117d05353d5539560921b60448201526064016103c6565b60006001600160a01b03821673bb915237d8b46dcdfe813c914bf98708e0dad84a14806108a057506001600160a01b0382167389a18abab20aab069feb7cab20517630ee7c1626145b15610988576001600160a01b03821673bb915237d8b46dcdfe813c914bf98708e0dad84a146108d357634a817c806108d9565b6347868c005b6040516370a0823160e01b81523360048201529091506000906001600160a01b038416906370a0823190602401602060405180830381865afa158015610923573d6000803e3d6000fd5b505050506040513d601f19601f8201168201806040525081019061094791906117a2565b116109835760405162461bcd60e51b815260206004820152600c60248201526b4e4f545f454c494749424c4560a01b60448201526064016103c6565b6109d4565b6001600160a01b038216156109cd5760405162461bcd60e51b815260206004820152600b60248201526a1253959053125117d3919560aa1b60448201526064016103c6565b50634d7c6d005b610a0033306109e38685611783565b73754288077d0ff82af7a5317c7cb8c444d421d103929190610cd2565b6105083384610d10565b6000546001600160a01b03163314610a345760405162461bcd60e51b81526004016103c6906116c8565b60006001600160a01b038216610a5057504761081233826111be565b6040516370a0823160e01b81523060048201526001600160a01b038316906370a0823190602401602060405180830381865afa158015610a94573d6000803e3d6000fd5b505050506040513d601f19601f82011682018060405250810190610ab891906117a2565b90506108126001600160a01b0383163383610c6f565b6000546001600160a01b03163314610af85760405162461bcd60e51b81526004016103c6906116c8565b6105416003600061152c565b6000546001600160a01b03163314610b2e5760405162461bcd60e51b81526004016103c6906116c8565b6001600160a01b038116610b935760405162461bcd60e51b815260206004820152602660248201527f4f776e61626c653a206e6577206f776e657220697320746865207a65726f206160448201526564647265737360d01b60648201526084016103c6565b610b9c81610c1f565b50565b60606003805480602002602001604051908101604052809291908181526020018280548015610c1557602002820191906000526020600020906000905b82829054906101000a900461ffff1661ffff1681526020019060020190602082600101049283019260010382029150808411610bdc5790505b5050505050905090565b600080546001600160a01b038381166001600160a01b0319831681178455604051919092169283917f8be0079c531659141344cd1fd0a4f28419497f9722a3daafe3b4186f6b6457e09190a35050565b6040516001600160a01b03831660248201526044810182905261050890849063a9059cbb60e01b906064015b60408051601f198184030181529190526020810180516001600160e01b03166001600160e01b0319909316929092179091526112d7565b6040516001600160a01b0380851660248301528316604482015260648101829052610d0a9085906323b872dd60e01b90608401610c9b565b50505050565b6003546000819003610e4f57600073ecce87e11d057713665f020c5e206e18fccbc8b76001600160a01b03166318160ddd6040518163ffffffff1660e01b8152600401602060405180830381865afa158015610d70573d6000803e3d6000fd5b505050506040513d601f19601f82011682018060405250810190610d9491906117a2565b905060005b83811015610e485773ecce87e11d057713665f020c5e206e18fccbc8b76340c10f1986610dc684866117bb565b6040516001600160e01b031960e085901b1681526001600160a01b03909216600483015260248201526044016020604051808303816000875af1158015610e11573d6000803e3d6000fd5b505050506040513d601f19601f82011682018060405250810190610e3591906117d3565b5080610e408161174d565b915050610d99565b5050505050565b818110610f955760005b82811015610f8d5773ecce87e11d057713665f020c5e206e18fccbc8b76340c10f19856003610e87866117f0565b95508581548110610e9a57610e9a6116fd565b6000918252602090912060108204015460405160e085901b6001600160e01b03191681526001600160a01b03939093166004840152600f9091166002026101000a900461ffff1660248201526044016020604051808303816000875af1158015610f08573d6000803e3d6000fd5b505050506040513d601f19601f82011682018060405250810190610f2c91906117d3565b50610f3860108361181d565b600003610f7b57610f7b610f4d601084611831565b600360009081527fc2575a0e9e593c00f959f8c92f12db2869c3395a3b0502d05e2516446f71f85b90910155565b80610f858161174d565b915050610e59565b506003555050565b60005b8181101561107c5773ecce87e11d057713665f020c5e206e18fccbc8b76001600160a01b03166340c10f198560038481548110610fd757610fd76116fd565b6000918252602090912060108204015460405160e085901b6001600160e01b03191681526001600160a01b03939093166004840152600f9091166002026101000a900461ffff1660248201526044016020604051808303816000875af1158015611045573d6000803e3d6000fd5b505050506040513d601f19601f8201168201806040525081019061106991906117d3565b50806110748161174d565b915050610f98565b506110896003600061152c565b600073ecce87e11d057713665f020c5e206e18fccbc8b76001600160a01b03166318160ddd6040518163ffffffff1660e01b8152600401602060405180830381865afa1580156110dd573d6000803e3d6000fd5b505050506040513d601f19601f8201168201806040525081019061110191906117a2565b905060005b6111108385611845565b811015610e485773ecce87e11d057713665f020c5e206e18fccbc8b76340c10f198661113c84866117bb565b6040516001600160e01b031960e085901b1681526001600160a01b03909216600483015260248201526044016020604051808303816000875af1158015611187573d6000803e3d6000fd5b505050506040513d601f19601f820116820180604052508101906111ab91906117d3565b50806111b68161174d565b915050611106565b8047101561120e5760405162461bcd60e51b815260206004820152601d60248201527f416464726573733a20696e73756666696369656e742062616c616e636500000060448201526064016103c6565b6000826001600160a01b03168260405160006040518083038185875af1925050503d806000811461125b576040519150601f19603f3d011682016040523d82523d6000602084013e611260565b606091505b50509050806105085760405162461bcd60e51b815260206004820152603a60248201527f416464726573733a20756e61626c6520746f2073656e642076616c75652c207260448201527f6563697069656e74206d6179206861766520726576657274656400000000000060648201526084016103c6565b600061132c826040518060400160405280602081526020017f5361666545524332303a206c6f772d6c6576656c2063616c6c206661696c6564815250856001600160a01b03166113a99092919063ffffffff16565b805190915015610508578080602001905181019061134a91906117d3565b6105085760405162461bcd60e51b815260206004820152602a60248201527f5361666545524332303a204552433230206f7065726174696f6e20646964206e6044820152691bdd081cdd58d8d9595960b21b60648201526084016103c6565b60606113b884846000856113c2565b90505b9392505050565b6060824710156114235760405162461bcd60e51b815260206004820152602660248201527f416464726573733a20696e73756666696369656e742062616c616e636520666f6044820152651c8818d85b1b60d21b60648201526084016103c6565b6001600160a01b0385163b61147a5760405162461bcd60e51b815260206004820152601d60248201527f416464726573733a2063616c6c20746f206e6f6e2d636f6e747261637400000060448201526064016103c6565b600080866001600160a01b031685876040516114969190611888565b60006040518083038185875af1925050503d80600081146114d3576040519150601f19603f3d011682016040523d82523d6000602084013e6114d8565b606091505b50915091506114e88282866114f3565b979650505050505050565b606083156115025750816113bb565b8251156115125782518084602001fd5b8160405162461bcd60e51b81526004016103c691906118a4565b50805460008255600f016010900490600052602060002090810190610b9c91905b80821115611561576000815560010161154d565b5090565b8015158114610b9c57600080fd5b60006020828403121561158557600080fd5b81356113bb81611565565b60008083601f8401126115a257600080fd5b50813567ffffffffffffffff8111156115ba57600080fd5b6020830191508360208260051b85010111156115d557600080fd5b9250929050565b600080602083850312156115ef57600080fd5b823567ffffffffffffffff81111561160657600080fd5b61161285828601611590565b90969095509350505050565b6001600160a01b0381168114610b9c57600080fd5b6000806040838503121561164657600080fd5b8235915060208301356116588161161e565b809150509250929050565b60006020828403121561167557600080fd5b81356113bb8161161e565b6020808252825182820181905260009190848201906040850190845b818110156116bc57835161ffff168352928401929184019160010161169c565b50909695505050505050565b6020808252818101527f4f776e61626c653a2063616c6c6572206973206e6f7420746865206f776e6572604082015260600190565b634e487b7160e01b600052603260045260246000fd5b60006020828403121561172557600080fd5b813561ffff811681146113bb57600080fd5b634e487b7160e01b600052601160045260246000fd5b60006001820161175f5761175f611737565b5060010190565b60006020828403121561177857600080fd5b81516113bb8161161e565b600081600019048311821515161561179d5761179d611737565b500290565b6000602082840312156117b457600080fd5b5051919050565b600082198211156117ce576117ce611737565b500190565b6000602082840312156117e557600080fd5b81516113bb81611565565b6000816117ff576117ff611737565b506000190190565b634e487b7160e01b600052601260045260246000fd5b60008261182c5761182c611807565b500690565b60008261184057611840611807565b500490565b60008282101561185757611857611737565b500390565b60005b8381101561187757818101518382015260200161185f565b83811115610d0a5750506000910152565b6000825161189a81846020870161185c565b9190910192915050565b60208152600082518060208401526118c381604085016020870161185c565b601f01601f1916919091016040019291505056fea2646970667358221220ac26b6f9ce2c7287a0edcebe4ce906492a88e5ced758f8679eaed0786670dc1364736f6c634300080d0033",
  "linkReferences": {},
  "deployedLinkReferences": {}
}